:020000040800F2
:10000000402B00203D64000855620008476400084A
:1000100057620008596200085B6200080000000097
:100020000000000000000000000000005F62000807
:100030005D62000800000000536400083B62000895
:1000400057640008576400085764000857640008A4
:10005000576400085764000857640008A762000846
:100060005764000857640008576400085764000884
:100070005764000857640008576400085764000874
:100080005764000857640008576400085764000864
:100090005764000857640008576400085764000854
:1000A0005764000857640008576400085764000844
:1000B000576400085764000861620008576400082C
:1000C0005764000857640008576400085764000824
:1000D0005764000857640008576400085764000814
:1000E0005764000857640008576400085764000804
:1000F00057640008576400085764000857640008F4
:1001000057640008576400085764000857640008E3
:1001100057640008576400085764000857640008D3
:1001200057640008576400085764000857640008C3
:1001300057640008576400085764000857640008B3
:1001400057640008576400085764000857640008A3
:100150005764000857640008576400085764000893
:100160005764000857640008576400085764000883
:100170005764000857640008576400085764000873
:100180005764000857640008DFF80CD00EF0EAFC52
:10019000004800473D8D0008402B0020F8B5FF4C7B
:1001A0000146224694F82460D2E9000200235D1E35
:1001B00056B179B1022111E0417C10786B460122E1
:1001C00006F0B8FA68B90EE0A67A56B111B1617CB2
:1001D00061B902E08DF80030EEE701218DF80010E2
:1001E000EAE72846F8BD9DF8000060740020F8BDDD
:1001F0007CB50024E94D1BE029684A7BA24215D05A
:10020000097EA14212D0007801AB0122214606F0FE
:1002100077FC10B14FF0FF307CBD9DF804000090DA
:100220002346DFA20021042003F076FA641CE4B226
:1002300068680179A142DFD800207CBD0B46D74910
:1002400030B40A684FF0FF34557B854206D0127EE9
:10025000824203D049680A79824202D8204630BCE3
:1002600070470C780146204630BC012206F048BC9D
:1002700038B5CA4C054694F82300A84201D10020A5
:1002800038BD0DB1302000E000208DF80000A07CCA
:1002900028B19DF8000040F002008DF8000094F8AD
:1002A000220028B19DF8000040F080008DF8000089
:1002B00020686B460122C17D6068007806F03AFA3A
:1002C00010B14FF0FF3038BD84F82350D7E72DE947
:1002D000FC41044610F0700F4FF0000601D00120E1
:1002E00004E014B18DF8006002E040208DF80000B9
:1002F000AA4D6B4601222868417D6868007806F0A7
:1003000019FA4FF0FF3708B1AE726EE09DF80000A9
:1003100020F0400028738DF80060600602D40420AD
:100320008DF80000A00605D49DF8000040F0020002
:100330008DF80000E00605D49DF8000040F00100B3
:100340008DF80000200705D49DF8000040F038002B
:100350008DF8000028686B460122817D686800786E
:1003600006F0E8F90028CFD11CB1082C01D0FFF726
:100370007FFF286801AB012201796868007806F0E8
:10038000BFFB90BBE00707D011208DF800009DF85F
:10039000040040F0200006E010208DF800009DF8D9
:1003A000040020F020008DF8040095F824000028B7
:1003B0009DF8040002D040F0800001E020F08000B1
:1003C0008DF8040028686B46012290F826106868B2
:1003D000007806F0AFF940B9286801AB0122017935
:1003E0006868007806F0A6F910B13846BDE8FC81CF
:1003F000AC722E75322005F008FF0020F6E738B504
:100400004FF0FF35A0B1654CE189814210D36428DB
:100410000ED8B1FBF0F0401E8DF8000020686B464E
:10042000012290F824106068007806F083F908B182
:10043000284638BD9DF80000E189401CB1FBF0F072
:100440002085002038BDF8B5544C0546A07CA84254
:1004500001D10020F8BD51484FF0FF366B46D0E97E
:1004600000104FF001020979007835B306F048FB1F
:10047000D8BB9DF800006B4620F020008DF80000EE
:100480002068012201796068007806F053F960BBAA
:10049000032005F0BAFE02208DF8000094F8220037
:1004A00070B382202AE020686B460122C17D60681B
:1004B000007806F03FF9C0B92DE006F021FBA0B9A5
:1004C000A07AC0079DF8000002D040F0200001E0B3
:1004D00020F020008DF8000020686B460122017991
:1004E0006068007806F026F908B13046F8BD0320B0
:1004F00005F08BFE94F8220000B180208DF80000FA
:1005000094F823000028CED09DF8000040F0300081
:100510008DF80000C7E7A5749BE7F8B50120FFF749
:1005200092FF0C264FF0FF356B460122002130462A
:1005300006F0E6FA18B99DF80000482804D0761CA9
:10054000F6B20F2EF0D901E00F2E05D918A2002126
:10055000062003F0E1F8D6E0104C10276B4684F833
:100560002A608DF8007001220A21304606F0E2F878
:100570000028F0D1012005F048FE1F208DF8000072
:1005800094F82A006B4601220A2106F0D3F80028CD
:100590007ED1012005F039FE14E0000000000020AB
:1005A000252335783A20252335780D0A00000000F0
:1005B000436F6D70617373206E6F7420666F756E1C
:1005C000642E0A0094F82A006B460322102106F0DC
:1005D00097FA00285CD19DF800006B468030A0851A
:1005E0009DF8010001228030E0859DF802000A217B
:1005F000803020868DF8007094F82A0006F09AF872
:10060000002845D1012005F000FE0020FFF71BFF68
:1006100040208DF8000020686B460122817E6068D2
:10062000007806F087F800286DD194F82A006B4610
:1006300040F080008DF8000020680122817F606812
:10064000007806F077F800285DD102208DF80000D0
:1006500020686B460122C17F6068007806F06AF866
:10066000B0B988208DF8000020686B46012290F810
:1006700020106068007806F05DF848B994F82A0008
:100680008DF80000206890F821106068007800E084
:1006900039E06B46012206F04DF8A0BB0A208DF828
:1006A000000020686B46012290F8221060680078F4
:1006B00006F040F838BB81208DF8000020686B46BA
:1006C000012290F823106068007806F033F8D0B962
:1006D00011208DF8000020686B46012290F826104A
:1006E0006068007806F026F868B903208DF80000ED
:1006F00020686B46012290F827106068007806F0A9
:1007000019F8002800D02846F8BDF8B5F94C4FF08C
:10071000FF36A07A00287CD000258DF80050206894
:100720006B460122417C6068007806F003F80028DF
:100730006FD120686B46012241796068007805F02E
:10074000F9FF002865D120686B46012201796068B5
:10075000007805F0EFFF00285BD194F82400E0B3A7
:100760000C208DF8000020686B460122017960683A
:10077000007805F0DFFF002871D1322005F045FD3B
:10078000C0208DF80000A07AC00702D0E0208DF8CC
:10079000000020686B46012201796068007805F04E
:1007A000C9FF00285BD1607C18B102208DF80000E1
:1007B00001E08DF8005020686B460122417C6068A2
:1007C000007805F0B7FF20BB8DF8005020686B461D
:1007D00001224179606800783DE0FFE704208DF850
:1007E000000020686B46012201796068007805F0FE
:1007F000A1FF70B9A07C88B9A07AC0070ED0602094
:100800008DF8000020686B4601220179606800784D
:1008100000E024E005F08EFF08BB01E04020EFE798
:10082000322005F0F2FC607C18B101208DF8000048
:1008300001E08DF8005020686B460122417C606821
:10084000007805F077FF50B92068AA4B0122417962
:1008500060681033007805F06DFF002800D0304646
:10086000F8BD2DE9F041A34C20F00101002594F8DA
:10087000240010B10020BDE8F081A07A4FF0FF36CF
:1008800068B10840277C2074884200D0354641B1C9
:100890000120FFF783FCFFF738FF38B1277430469B
:1008A000E9E7207D00B10120FFF778FC2846E2E768
:1008B00038B5904C4FF0FF35A17A31B3BC2801D345
:1008C000012010E0622801D302200CE02A2801D385
:1008D000032008E0142801D3042004E00A2801D3EF
:1008E000052000E006208DF80000E07A9DF8001059
:1008F000884201D1002038BD20686B4601228178F2
:100900006068007805F016FF08B1284638BD9DF8EC
:100910000000E072EEE72DE9F84305464FF0FF389E
:10092000282845D80727734C002655B10120FFF72A
:100930009FFC012D17D0022D17D0052D17D80420AC
:100940001CE00020FFF794FC8DF800608DF801702A
:1009500020686B460222417D6068007805F0EAFE5F
:1009600030BB26752FE0022008E0032006E00A2DA8
:1009700001D8052002E0142D03D806208DF80000D0
:1009800001E08DF8007020686B460122417A6068B2
:10099000007805F0CFFE58B920208DF800002068BF
:1009A0006B460122417D6068007805F0C3FE10B1FE
:1009B0004046BDE8F8830820A07226730120207508
:1009C0000020FFF74EFF0020F3E7F8B5494D04463D
:1009D0004FF0FF37A87A48B395F8240030BB287D44
:1009E0004FF47A7648B164B1282C03D82046FFF73B
:1009F00092FF2DE00020FFF78EFF042C05D2042487
:100A000006E00020FFF787FFF9E7B44200D934463B
:100A1000B6FBF4F0401E8DF8000028686B460122FA
:100A200041786868007805F085FE08B13846F8BD61
:100A30009DF80000401CB6FBF0F0E881288D64288A
:100A400000D36420FFF7DBFCE8894008FFF730FFA4
:100A50000020F8BD38B5274C4FF0FF35A17A19B307
:100A6000022806D0042806D008280ED010281BD152
:100A70000DE0002000E008208DF80000607A9DF86D
:100A80000010B0EBD10F04D005E01020F4E71820DF
:100A9000F2E7002038BD20686B460122C17960680A
:100AA000007805F047FE08B1284638BD9DF80000E3
:100AB000C0086072EDE738B50E4C4FF0FF35A17AF3
:100AC00049B3FA2809D0B0F5FA7F08D0B0F57A7F9B
:100AD00012D0B0F5FA6F1ED110E0002000E008201F
:100AE0008DF80000207A9DF80010B0EBD10F07D0F0
:100AF00008E00000000000201020F1E71820EFE7D8
:100B0000002038BD20686B4601228179606800783A
:100B100005F010FE08B1284638BD9DF80000C00859
:100B20002072EDE77CB580208DF80000FE4C6B460E
:100B300001222068417D6068007805F0FBFD4FF0E0
:100B4000FF36002851D1642005F05FFB00258DF8A9
:100B5000005020686B460122417D6068007805F0F6
:100B6000E9FDE8BBE57448208DF8000020686B467D
:100B70000122017A6068007805F0DCFD80BBFF206F
:100B800004F80A0F310C04F8020C04F8010C607030
:100B9000A180A0712072E1830120A070207665768B
:100BA000E572A572E56025616561A576E576A583A8
:100BB0004FF4FA60FFF77FFF90B90220FFF74AFF7A
:100BC00070B92A20FFF774FE50B93220FFF7FDFEFE
:100BD00030B90020FFF745FE10B9FFF79EFC00E09A
:100BE00003E00A20FFF70BFC08B130467CBD002073
:100BF000FFF76DFB00207CBD7CB50446CA480D465E
:100C00004FF0FF36817A11F0700F08D0016840680C
:100C10006B46897B0078062205F072FF08B13046EA
:100C20007CBDBDF8000040BA2080BDF8020040BA8B
:100C30006080BDF8040040BAA08015B1284605F0D8
:100C4000EAFA00207CBD7CB50446B7480D464FF05B
:100C5000FF36817A090708D5016840686B46C97B71
:100C60000078062205F04CFF08B130467CBDBDF887
:100C7000000040BA2080BDF8020040BA6080BDF894
:100C8000040040BAA08015B1284605F0C4FA00203F
:100C90007CBDF8B5A44C07460E46A07A4FF0FF3550
:100CA00040B120686B460222017C6068007805F044
:100CB00027FF08B12846F8BDBDF8000040BA05B2CC
:100CC00016B1304605F0A7FA6068B0F90810C08880
:100CD00000EE101AF8EEC00A00EE105AB8EEC00A84
:100CE00070EE600A00EE100AB8EE401A80EE810A3B
:100CF000DFED8E0A30EE200ADFED8D0A002020EEB7
:100D0000200ABDEEC00A87ED000AF8BD2DE9FC41BE
:100D1000854D04466B46686802227721007805F00D
:100D2000EFFE4FF0FF3780B968686E460222007808
:100D30007A21B31C05F0E4FE38B96868331D02223D
:100D400000787D2105F0DCFE10B13846BDE8FC815D
:100D5000BDF8000040BA2060BDF8020040BA6060F3
:100D6000BDF8040040BAA0600020EFE72DE9FC4187
:100D70006D4D04466B46686802220621007805F036
:100D8000BFFE4FF0FF3780B968686E4602220078D8
:100D90000821B31C05F0B4FE38B96868331D02227F
:100DA00000780A2105F0ACFE08B13846CEE7BDF860
:100DB000000040BA2060BDF8020040BA6060BDF893
:100DC000040040BAA0600020C0E72DE9FC41564D68
:100DD00004466B46686802221321007805F090FEF5
:100DE0004FF0FF3780B968686E46022200781521FF
:100DF000B31C05F085FE38B96868331D02220078FF
:100E0000172105F07DFE08B138469FE7BDF80000C8
:100E100040BA2060BDF8020040BA6060BDF804002E
:100E200040BAA060002091E77CB5002100910191BB
:100E300050F82120524240F82120491C0329F7DBB9
:100E40000188394C090A8DF8001001788DF80110DD
:100E500081886B46090A8DF8021001798DF803101C
:100E600001890222090A8DF80410007A8DF8050024
:100E700060681321007805F05DFC4FF0FF3688B9FB
:100E800060686D46022200781521AB1C05F052FC0B
:100E900040B960682B1D02220078172105F04AFC3A
:100EA000002800D030467CBD70B586B004460020D6
:100EB0000090019002900390049002A8FFF756FF63
:100EC0004FF0FF36B0BB2168029821F00101401AB3
:100ED00002906168039821F00101401A0390A16813
:100EE000049821F00101401A049002980E4C000A67
:100EF0008DF8000002988DF8010003986B46000AF7
:100F00008DF8020003988DF8030004980222000A6D
:100F10008DF8040004988DF80500606806210078BB
:100F200005F008FC30B906E00000002000000C428B
:100F30000000804711E060686D46022200780821B9
:100F4000AB1C05F0F7FB40B960682B1D022200784E
:100F50000A2105F0EFFB002800D0304606B070BD36
:100F600070B586B004460020009001900290039076
:100F7000049002A8FFF7CAFE4FF0FF36F0BB2168CD
:100F8000029821F00101401A02906168039821F053
:100F90000101401A0390A168049821F00101401A50
:100FA00004900298000A8DF8000002988DF8010064
:100FB0000398000A8DF8020003988DF80300049846
:100FC000000A8DF8040004988DF80500FE4C6B466D
:100FD000022260687721007805F0ACFB70B9606888
:100FE0006D46022200787A21AB1C05F0A3FB28B9DC
:100FF00060682B1D022200787D2100E003E005F0EF
:1010000099FB0028AAD03046A8E7EF49097A39B100
:10101000012907D002290AD003290BD0002103E0BF
:10102000FA2101E04FF4FA710180002070474FF47B
:101030007A71F9E74FF4FA61F6E7E3494A7A42B187
:10104000012A08D0022A0FD0032A0FD04FF0FF3018
:101050007047022200E004220270C97C11B111061F
:10106000C90D0170002070470822F5E71022F3E750
:10107000D549C97A072913D2DFE801F01204060A1C
:101080000C0E1000BC2100E062210180002070479E
:101090002A21FAE71421F8E70A21F6E70521F4E707
:1010A0000021F2E7C84991F8242012B14FF0FF3037
:1010B0007047C989018000207047C349098D0180AC
:1010C00000207047C049097A41B1012909D002299D
:1010D0000DD003290ED04FF0FF3070479FEDBB0AB3
:1010E00001E09FEDBB0A80ED000A002070479FEDF4
:1010F000B90AF8E79FEDB80AF5E7B3494A7A42B171
:10110000012A09D0022A11D0032A12D04FF0FF3051
:1011100070474FF4804201E04FF400520280C97CD6
:1011200011B1C2F34E010180002070474FF480528C
:10113000F4E74FF40062F1E7A349097C0170002055
:101140007047A149897A01B10121017000207047DF
:1011500038B59D4A04464FF0FF35907A40B110688B
:101160006B46817C50680222007805F0C9FC08B10A
:10117000284638BDBDF8000040BA2080002038BDA8
:101180002DE9FF4F814690488846002490F82410AE
:1011900083B01E4625464FF0FF3BD1BB0021317086
:1011A000817AB1B3017CA1B34A0600D502248A0634
:1011B00000D5A41CCA0600D5A41C090700D5A41D8F
:1011C000016882464068097B6B460078022205F080
:1011D00097FCF0B9BDF8000047BAA7427BD3DAF814
:1011E00004205088B7EB500F14D9DAF800006B4692
:1011F000C17C1078012205F083FC50B99DF80000F5
:10120000C00607D5FFF781FA6FF0010007B0BDE80F
:10121000F08F0DE0059804F0FEFFDAF80010DAF820
:1012200004006B46497B0078224605F069FC08B152
:101230005846EBE7B7FBF4F01099401E0870002009
:101240003070ECB39AF8101050460A07694613D56F
:10125000BDF80020062552BAA8F80020BDF80220EB
:1012600052BAA8F80220BDF8042052BAA8F8042007
:10127000327842F008023270A5420CD0027C52064D
:1012800009D54A19AD1C128852BAA9F80020327843
:1012900042F040023270A5420CD0027C920609D581
:1012A0004A19AD1C128852BAA9F80220327842F0CD
:1012B00020023270A5420ED09AF81000C00600E05D
:1012C00009E008D54819008840BAA9F80400307828
:1012D00040F010003070002098E72DE9F8433A4CB8
:1012E0000646174694F8240089464FF0FF3890B31D
:1012F000A07A80B320686B460222017B6068007888
:1013000005F0FEFB38BBBDF8000045BAB54202D27D
:10131000002038701FE060684188B5EB510F11D98B
:10132000216800786B46C97C012205F0E9FB90B981
:101330009DF80000C00605D5FFF7E7F96FF0010042
:10134000BDE8F88320684B463246417B60680078F0
:1013500005F0D6FB08B14046F2E7B5FBF6F0401EBB
:1013600038700020ECE7184981F82200002070470F
:101370002DE9FC410A2607250120FFF764F8124CED
:1013800010278DF8007094F82A006B4601220A217C
:1013900005F0D0F908B10720D8E440208DF800000E
:1013A00094F82A006B4601220C2105F0C3F9E0BB3A
:1013B00018208DF8000094F82A006B4601220A21BB
:1013C00005F0B8F988BB09E00000002000000343E5
:1013D0000000834233330342333383410A2004F055
:1013E00014FF94F82A006B460122022105F088FBC5
:1013F000D8B99DF80000C00706D1761EF6B2E2D239
:101400009DF80000C00731D094F82A006B460622F0
:10141000032105F075FB40B99DF801009DF800100F
:101420000002002500B2084300E01FE04FF4C8713D
:10143000C830884200D901259DF803009DF802209C
:10144000000200B21043C830884201D945F00205BD
:101450009DF805009DF80410000200B2084300F555
:101460004860B0F5166F01D945F004058DF800709D
:1014700014F82A0F6B4601220C2105F05BF98DF858
:10148000007020786B4601220A2105F053F90020F4
:10149000FEF7D9FF284659E42DE9FE4F0546012005
:1014A0008DF800004FF0000817460C468DF80180BB
:1014B000FE4E6B4602223068417D7068007805F070
:1014C00039F94FF0FF3A00287CD1C82004F09DFE86
:1014D0008DF8008030686B460122417C706800788E
:1014E00005F028F90028EFD130686B4601224179D8
:1014F0007068007805F01EF90028E5D130686B4669
:101500000122417D7068007805F014F90028DBD1D4
:1015100030686B460122817E7068007805F00AF918
:101520000028D1D130686B460122017970680078BB
:1015300005F000F90028C7D14FF00C098DF8009094
:1015400030686B46012201797068007805F0F2F886
:10155000002837D10F2004F058FE706B6B46012233
:10156000407A8DF80000306881787068007805F066
:10157000E1F8002826D1706B6B460122007A8DF8C5
:101580000000306841787068007805F0D3F80028D2
:1015900075D1706B807A0FB140F0E0008DF80000DB
:1015A00030686B46012281797068007805F0C2F8D6
:1015B000002864D13FB1706BC07A40F0E0008DF834
:1015C000000002E048E08DF8008030686B460122A0
:1015D000C1797068007805F0ADF8E8BB17B1C82094
:1015E00004F013FE40208DF8000030686B460122A5
:1015F00001797068007805F09DF868BB78208DF857
:10160000000030686B46012241797068007805F06F
:1016100091F808BBC82004F0F8FD8DF80080306810
:1016200047466B46417970680122007805F082F8E0
:1016300090B931687068B046097B00786B46022229
:1016400005F05EFA40B9BDF80000AF6040BAB0FBEB
:10165000F9F0C6B26F6000E011E02F60A76067602C
:10166000276000273AE000BFD8F80010D8F804003F
:101670006B46497B00780C2205F042FA10B15046C7
:10168000BDE8FE8FBDF80000236840BA02B2BDF885
:101690000200BDF804101A44226040BA626800B229
:1016A0001044606049BAA06809B20844A060BDF85F
:1016B00006002B6840BA02B2BDF80800BDF80A1057
:1016C0001A442A6040BA6A6800B21044686049BA95
:1016D000A86809B208447F1CFFB2A860B742C3D310
:1016E00028688322C117090441EA1041000400233D
:1016F0000CF004FE324600230CF000FE28606868FF
:101700008322C117090441EA1041000400230CF0B0
:10171000F5FD324600230CF0F1FD6860A8688322D5
:10172000C117090441EA1041000400230CF0E6FD52
:10173000324600230CF0E2FDA86020684FF480459B
:10174000C117090441EA104100042A4600230CF0A5
:10175000D5FD324600230CF0D1FD206060682A469A
:10176000C117090441EA1041000400230CF0C6FD32
:10177000324600230CF0C2FD6060A0682A46C11703
:10178000090441EA1041000400230CF0B7FD324681
:1017900000230CF0B3FDA060002802DDA0F580302E
:1017A00001E000F58030A060002069E72DE9F04FEE
:1017B00081463E4815462DED048B95B08A4640681B
:1017C0000024264600780FAB03220D2105F098F97E
:1017D00050B125B136A20021042001F09DFF072061
:1017E00015B0BDEC048B12E565B19DF83E109DF877
:1017F0003D00CDE900019DF83C3035A200210420D8
:1018000001F08AFF384BDFED391ADFED390A9FED21
:10181000391A00200FAA0BAF115CA1B103EB4101F3
:1018200031F8021C00EE101A07EB8001B8EE400AF6
:1018300081ED000A20EE210A81ED000A20EE200A47
:1018400081ED000A04E007EB8001012681ED001A1A
:10185000401C0328E0DB002E74D0DFED278A9FEDCB
:10186000279AB5B126A20021042001F055FF9FED73
:10187000290B2AA28DED000B0021042001F04CFF62
:101880009FED2A0B2BA28DED000B0021042001F00F
:1018900043FF00265AF82610009159F82600091A2D
:1018A00000EE101A08A9B8EEC08A4CE00000002033
:1018B00052656164696E67204F54502052656769B4
:1018C00073746572204572726F722E0A00000000F8
:1018D000416363656C204F54503A25642C20256485
:1018E0002C2025640A0000005410010800008047E5
:1018F000000080380000000066666646CDCC2C47AC
:10190000414343454C3A4352495445524941204290
:101910000D0A0000000000C0CCCCCC404D696E2008
:101920004D473A2025372E34660D0A00000000A0EE
:101930009999E5404D6178204D473A2025372E345E
:10194000660D0A0043E001EB860B8BED008A0DB3B8
:1019500000EE100AB8EEC00A10EE100A0CF04EFFAE
:1019600007460098884600EE100AB8EEC00A10EE4E
:10197000100A0CF043FFCDE9020118EE100A0CF03A
:101980003DFFCDE90001CDE90478FAA20021042051
:1019900001F0C2FE9BED000AB4EEE80AF1EE10FA87
:1019A00004D3B4EEC90AF1EE10FA09DD2DB13346C5
:1019B000FAA20021042001F0AFFE0120B040044350
:1019C000761C032EFFF666AF002C7DD0B1E025B16A
:1019D000FDA20021042001F09FFE0026F7EE008A00
:1019E0005AF8260059F826100091411A00EE101AF4
:1019F00008A901EB860BB8EEC08A8BED008A6DB3A7
:101A000000EE100AB8EEC00A10EE100A0CF0F6FE56
:101A100007460098884600EE100AB8EEC00A10EE9D
:101A2000100A0CF0EBFECDE9020118EE100A0CF0E2
:101A3000E5FECDE90001CDE90478E8A2002104200B
:101A400001F06AFE0BA850F826000CF0D7FECDE995
:101A50000001EFA20021042001F05EFE0BA800EBC4
:101A60008600DBED000A90ED001A10A800EB860757
:101A700080EE810A30EE680A87ED000A75B110EE3B
:101A8000100A0CF0BBFE9FEDE70BE8A28DED020BF8
:101A9000CDE900010021042001F03EFE97ED000A8F
:101AA000B0EEC00A10EE100AB0F17C5F09DD2DB176
:101AB0003346E6A20021042001F02EFE0120B040B2
:101AC0000443761C032E00E001E089DB7CE79FEDF8
:101AD000E58A45B19FEDE40BE5A28DED000B0021F9
:101AE000042001F019FE002618EE100A0CF086FE04
:101AF00041EC190B59F826000CF02FFE41EC100BAD
:101B00000DF0A2FD53EC192B51EC100B0CF0A2FEC2
:101B10000CD245B159F8260000903346DEA20021D0
:101B2000042001F0F9FD0120B0400443761C032E8F
:101B3000DADB204654E62DE9F04F8146E0480024E8
:101B40002DED048B95B0164640688A4625460078F0
:101B50000EAB0322214604F0D3FF40B12EB1AFF209
:101B6000B0220021042001F0D7FD072038E666B13D
:101B70009DF83A109DF83900CDE900019DF8383004
:101B8000D0A20021042001F0C7FDD44B00200EAAF2
:101B90005FEDAA0A9FEDD21A5FEDAA1A0BAF115C96
:101BA000A1B103EB410131F8021C00EE101A07EB62
:101BB0008001B8EE400A81ED000A20EE200A81ED96
:101BC000000A80EE012A81ED002A04E007EB800183
:101BD0000125C1ED001A401C0328E0DB002D5AD07E
:101BE000DFEDC08A6EB1C0A20021042001F094FD97
:101BF0009FEDC20BC3A28DED000B0021042001F06C
:101C00008BFD00255AF82510009159F82500091A76
:101C100000EE101A08A901EB850BB8EEC08A8BED17
:101C2000008A0EB300EE100AB8EEC00A10EE100AD9
:101C30000CF0E4FD07460098884600EE100AB8EE66
:101C4000C00A10EE100A0CF0D9FDCDE9020118EE21
:101C5000100A0CF0D3FDCDE90001CDE9047845A2CE
:101C60000021042001F058FD9BED000AB4EEE80AC3
:101C7000F1EE10FA09D22EB12B46A7A200210420C2
:101C800001F04AFD0120A84004436D1C032DB9DB7F
:101C9000002C6DD09FE126B1A9A20021042001F003
:101CA0003BFD00255AF8250059F825100091411AEE
:101CB00000EE101A08A901EB850BB8EEC08A8BED77
:101CC000008A6EB300EE100AB8EEC00A10EE100AD9
:101CD0000CF094FD07460098884600EE100AB8EE16
:101CE000C00A10EE100A0CF089FDCDE9020118EED1
:101CF000100A0CF083FDCDE90001CDE9047837A28C
:101D00000021042001F008FD0BA850F825000CF07C
:101D100075FDCDE900013EA20021042001F0FCFC8C
:101D20000BA800EB8500DBED000A90ED001A0FA870
:101D300000EB850780EE810A87ED000A76B110EE90
:101D4000100A0CF05BFD9FED370B38A28DED020BF6
:101D5000CDE900010021042001F0DEFC97ED000A2E
:101D6000B0EEC00A10EE100AB0F17C5F01DAF1E0CB
:101D7000FFE0F9E0426961735F73686966743D254D
:101D8000372E34662C2073743D25372E34662C2074
:101D90007265673D25372E34660A0000416363652E
:101DA0006C204641494C20617869733A2564203C97
:101DB0003D203232356D67206F72203E3D20363730
:101DC000356D670A00000000414343454C3A4352D9
:101DD00049544552494120410A000000426961735B
:101DE0005F53686966743D25372E34662C2042693E
:101DF00061735F5265673D25372E34662C2042693A
:101E000061735F485753543D25372E34660D0A00E1
:101E10004F54502076616C75653A2025372E346614
:101E20000D0A0000000000000000E03F72617469CC
:101E30006F3D25372E34662C207468726573686F89
:101E40006C643D25372E34660D0A0000414343453E
:101E50004C204661696C2041786973203D202564DF
:101E60000A00000000000047000000000000E04001
:101E7000416363656C3A435249544552494120439A
:101E80003A2062696173206C657373207468616EB7
:101E90002025372E34660A004641494C45443A20F5
:101EA000416363656C20617869733A2564203D2045
:101EB000256C64203E203530306D670A000000003C
:101EC000000000204779726F204F54503A25642C4F
:101ED0002025642C2025640D0A0000005410010800
:101EE000000003430000704A4759524F3A43524999
:101EF000544552494120420D0A00000000000000F4
:101F000000004E414D6178204450533A2025372E31
:101F100034660D0A000000004759524F20464149DF
:101F20004C20617869733A25642067726561746535
:101F300072207468616E2036306470730A0000008D
:101F40004759524F3A435249544552494120410A58
:101F5000000000002EB12B46FEA20021042001F05B
:101F6000DBFB0120A84004436D1C032DFFF69AAE55
:101F70008EE69FEDFE8A46B19FEDFD0BFEA28DED34
:101F8000000B0021042001F0C7FB002518EE100A09
:101F90000CF034FC41EC190B59F825000CF0DDFB7A
:101FA00041EC100B0DF050FB53EC192B51EC100BC6
:101FB0000CF050FC0CD246B159F8250000902B468D
:101FC000F7A20021042001F0A7FB0120A840044350
:101FD0006D1C032DDADB2046ACE52DE9FF4F0546ED
:101FE0002DED048BADF5077D0120F64F00268DF811
:101FF00018008DF8196038680C469946417D78685C
:10200000B04606AB0078022204F094FB00287CD195
:10201000C82004F0FAF88DF81880386806AB012261
:10202000417C7868007804F085FB0028EFD138689F
:1020300006AB012241797868007804F07BFB002828
:10204000E5D1386806AB0122417D7868007804F05C
:1020500071FB0028DBD1386806AB0122817E7868ED
:10206000007804F067FB0028D1D1386806AB012264
:1020700001797868007804F05DFB0028C7D10C2056
:102080008DF81800386806AB01220179786800786D
:1020900004F050FB0028BAD10F2004F0B6F8786B9A
:1020A00006AB0122407A8DF818003868817878688C
:1020B000007804F03FFB0028A9D1786B06AB012221
:1020C000007A8DF81800386841787868007804F054
:1020D00031FB00289BD18D980028786B807A01D045
:1020E00040F0E0008DF81800386806AB01228179D5
:1020F0007868007804F01EFB002888D18D9840B1E4
:10210000786BC07A40F0E00000E0A0E08DF81800A5
:1021100001E08DF81880386806AB0122C179786833
:10212000007804F007FB00288AD1C82004F06DF87D
:1021300040208DF81800386806AB012201797868D4
:10214000007804F0F7FA002884D178208DF8180080
:10215000386806AB012241797868007804F0EAFA21
:10216000002874D1A86068602860A060606020606A
:10217000B9F1000F04D094A20021042001F0CCFAA0
:10218000BB460A2004F041F8DBF80010DBF804003D
:10219000D846097B007806AB022204F0B1FC002887
:1021A0006DD1BDF818000C2140BAB0FBF1F0C7B2F8
:1021B000C6F1C800B84200DAC7B207EB4700820098
:1021C000D8F80010D8F8040006AB497B007804F07A
:1021D00097FCE0BB0021084633E006AA0A44D4F885
:1021E0000080B2F802C013889CFA9CFC5BBA0FFA1C
:1021F0008CFA1BB2B2F804C04344236063689CFAB3
:102200009CFC53446360A3680FFA8CFC6344A36096
:10221000D388D5F800805BBA0FFA83FC1389528902
:10222000C444C5F800C05BBAD5F804C01BB263440F
:102230006B6052BAAB6812B2401C1A44C0B20C3187
:10224000AA60B842C9D33E44C82E9ADB00E016E02B
:10225000B9F1000F05D0334662A20021042001F03D
:102260005BFA00208DF81800DBF80010DBF80400A2
:1022700006AB49790078012204F05CFA40B14FF0D6
:10228000FF300DF5077DBDEC048B04B0BDE8F08F89
:1022900028688322C117090441EA10410004002381
:1022A0000CF02CF8F71732463B460CF027F8286064
:1022B00068688322C117090441EA10410004002321
:1022C0000CF01CF832463B460CF018F86860A86821
:1022D0008322C117090441EA1041000400230CF0D5
:1022E0000DF832463B460CF009F8A86020684FF420
:1022F0008048C117090441EA104100044246002306
:102300000BF0FCFF32463B460BF0F8FF09EE100ADB
:10231000206060684246C117090441EA1041000488
:1023200000230BF0EBFF32463B460BF0E7FF08EED5
:10233000900A6060A0684246C117090441EA104152
:10234000000400230BF0DAFF32463B460BF0D6FFC9
:10235000A0604FE04779726F204661696C20417838
:102360006973203D2025640A000000000000A04998
:1023700000000000000034414779726F3A4352492F
:10238000544552494120433A2062696173206C658B
:102390007373207468616E2025372E34660A00003E
:1023A0004641494C45443A204779726F206178692B
:1023B000733A2564203D20256C64203E2032306431
:1023C00070730A00000000205374617274696E67B4
:1023D0002042696173204C6F6F7020526561647395
:1023E0000A00000053616D706C65733A2025640A21
:1023F00000000000002802DDA0F5803001E000F5BB
:102400008030A060B9F1000F55D094ED020AB8EE0B
:10241000C00A9FEDFD8A20EE080A10EE100A0CF0AB
:10242000EDF9B8EEE80A8046894620EE080A10EE7B
:10243000100A0CF0E3F9B8EEC90A06460F4620EE82
:10244000080A10EE100A0CF0D9F90B4602468DE886
:10245000CC03EEA2002104208D9B01F05DF995EDE7
:10246000020AB8EEC00A20EE080A10EE100A0CF0BC
:10247000C5F995ED010A80468946B8EEC00A20EEFE
:10248000080A10EE100A0CF0B9F995ED000A06469C
:102490000F46B8EEC00A20EE080A10EE100A0CF043
:1024A000ADF90B4602468DE8CC03E5A200210420DD
:1024B0008D9B01F031F90020E3E638B5ED4C94F83E
:1024C000241081421ED0002508B394F82500D8B10D
:1024D0000020FDF763FE0020FDF7B5FFE08CFEF75E
:1024E00074FA8DF8005060686B4601220078232151
:1024F00004F020F9012084F82400FDF74FFE00BF0E
:10250000FEF703F9002038BD4FF0FF3038BD002042
:10251000FDF744FE207C8DF8000060686B460122C8
:102520000078232104F006F984F82450E8E72DE927
:10253000F74F8AB014000F4604D0CFA20021042028
:1025400001F0EAF8CB4D95F8240020B10020FFF708
:10255000B4FF012600E0002607A8FEF756FD06A8F6
:10256000FEF76BFD09A8FEF783FD08A8FEF79AFDAC
:1025700095F80AB095F810A0A94624B1C5A200218B
:10258000042001F0C9F800252346002239460A98A4
:10259000FFF723FD10B16D1C022DF5DB022D30D0AD
:1025A00024B1C1A20021042001F0B6F80025234681
:1025B000012203A96846FFF710FD10B16D1C022D22
:1025C000F5DB022D20D0224603A93846FFF7EEF8AE
:1025D000C0B280462CB10346B9A20021042001F00C
:1025E0009BF8224669460A98FFF7A5FAC7B22CB1B4
:1025F0003B46BBA20021042001F08EF800256FB1FC
:102600000DE04CB1BDA201E034B1C8A2002104200C
:1026100001F082F8002515E0002518E00125B8F149
:10262000000F01D145F00205FEF7A2FEC7B22CB1A2
:102630003B46CBA20021042001F06EF80FB945F013
:10264000040524B1CEA20021042001F065F8FF2189
:1026500089F8081089F8091089F80B104FF6FF72F5
:10266000A9F80E2089F80A1089F81010012189F8BC
:102670000C10BDF81C00FEF71EFA9DF81800FEF7BE
:10268000E9F9BDF82400FEF713F9BDF82000FEF7C4
:102690009CF95846FDF71BFE5046FEF7E2F816B1CE
:1026A0000120FFF70AFF28460DB0EFE52DE9FF47AF
:1026B000704C8146884694F8240020B10020FFF732
:1026C000FCFE012500E0002501A8FEF79EFC6846FF
:1026D000FEF7B3FC03A8FEF7CBFC02A8FEF7E2FC72
:1026E000A77A267C002241464846FEF7D5FEFF2009
:1026F00020726072E0724FF6FF71E181A072207467
:10270000012020734FF00708BDF80400FEF7D3F94D
:102710009DF80000FEF79EF9BDF80C00FEF7C8F822
:10272000BDF80800FEF751F93846FDF7D0FD3046F8
:10273000FEF797F815B10120FFF7BFFE04B0404641
:10274000BDE8F087F8B515000E464FF0FF371FD0F3
:10275000484CA17AE1B1010A8DF80010C0B28DF8A1
:102760000100811960684289914211D8216800787E
:102770006B46C97E022203F0DDFF48B920682B4674
:102780003246017E6068007803F0D4FF002800D054
:102790003846F8BDF8B515000E464FF0FF371FD08C
:1027A000344CA17AE1B1010A8DF80010C0B28DF865
:1027B0000100811960684289914211D8216800782E
:1027C0006B46C97E022203F0B5FF48B920682B464C
:1027D0003246017E6068007804F092F9002800D04B
:1027E0003846F8BD2DE9FF4FDFF88880064685B0F2
:1027F00098F8250015460F464FF0FF3910B90FB174
:102800000024E5E0F7E000000000803741636365E5
:102810006C206F666673657420646174612048572C
:102820005354206269743D25643A2025372E34665E
:102830002025372E34662025372E34660D0A0000F9
:102840004779726F206F6666736574206461746186
:102850002048575354206269743D25643A20253737
:102860002E34662025372E34662025372E34660D0B
:102870000A000000000000205374617274696E67E2
:10288000204D5055363530302048575354210D0ACD
:102890000000000052657472696576696E672042B7
:1028A00069617365730D0A005265747269657669B2
:1028B0006E67205354204269617365730A000000FB
:1028C000416363656C2053656C66205465737420A6
:1028D000526573756C74733A2025640A0000000019
:1028E0004779726F2053656C66205465737420526B
:1028F0006573756C74733A2025640A0052657472AE
:10290000696576696E6720426961736573204572F7
:10291000726F72202D20706F737369626C6520492D
:102920003243206572726F720A0000005265747241
:10293000696576696E6720535420426961736573D7
:10294000204572726F72202D20706F737369626CF4
:102950006520493243206572726F720A00000000E0
:10296000436F6D706173732053656C66205465739B
:102970007420526573756C74733A2025640A0000E4
:1029800045786974696E6720485753540A000000FF
:10299000301B102800DD102080B283463A19014612
:1029A00092462046FFF7CEFE28BB6A46594620468F
:1029B000FFF7F0FEF8B950465A4669460BF022FD83
:1029C00018B16FF0010009B060E404EB0B0084B2B1
:1029D000B442DDD3280A8DF810008DF81150D8F8D4
:1029E0000000444604AB417FD8F80400022200787E
:1029F00003F0A0FE08B14846E5E7012084F8250071
:102A00000898E0840020DEE7A24991F824100170C4
:102A100000207047FEB59F4D04460E46A87A4FF041
:102A2000FF37C00709D028686B46082290F82810A5
:102A30006868007804F064F808B13846FEBD9DF877
:102A40000000C10701D0800702D56FF00100FEBD74
:102A50009DF80700000602D56FF00200FEBDBDF82C
:102A600001202280BDF803106180BDF80500A08020
:102A7000AB8D12FB03F212122280EA8D11FB02F1E0
:102A800009126180298E10FB01F00012A08016B19E
:102A9000304603F0C0FB0020FEBD7E4949688989AD
:102AA0000180002070472DE9F8437A4C160004F1AC
:102AB00016014FF0FF3289464FF001084FF0000534
:102AC0006FD0B0F57F7F01D9FF2705E0042801D240
:102AD000012701E0C0F38707B6F5207F7DD8607D30
:102AE000F0B994F8240028B10020FFF7E6FC84F840
:102AF000208001E084F820504846FEF786FA6548B9
:102B00001830FEF79AFA63481A30FEF7B1FA6148B6
:102B10001C30FEF7C7FAA07AA0775E48217CC17707
:102B20000020FDF73BFB8DF800508DF801504FF071
:102B300007098DF8029020686B46032201796068CE
:102B4000007803F0F7FD00286AD18DF80070206846
:102B50006B460122817A6068007803F0EBFDE8BBE8
:102B6000012E05D0022E05D0052E05D804201FE029
:102B700002201DE003201BE00A2E01D8052017E0EB
:102B8000142E01D8062013E0282E02D88DF80090CC
:102B900010E0502E01D808200AE0A02E02D809200B
:102BA00006E03AE0B6F5A07F01D80A2000E00B204D
:102BB0008DF8000020686B460122417A6068007839
:102BC00003F0B8FD50B9C0208DF8000020686B46B6
:102BD0000122017D6068007801E059E020E003F007
:102BE000A9FDE8B920208DF8000020686B4601227D
:102BF000417D6068007803F09DFD88B940208DF824
:102C0000000020686B460122417C6068007803F078
:102C100091FD28B984F8158033E000200B5C9BB34C
:102C20004746FF264FF6FF7826726672E672A4F8D2
:102C30000E80A67226742773A07FFDF748FBE08AFA
:102C4000FDF739FF207EFDF705FF608BFDF730FEB5
:102C5000A08BFDF7BAFEE07FFDF703FE94F820009D
:102C600010B10120FFF729FC8DF8005020686B4659
:102C70000122017D6068007803F05CFD0028D3D15B
:102C800065750020BDE8F883FFE7401C0C28C5D31C
:102C90001046F7E700000020C8234FF48062FD498A
:102CA00040F6F630FFF79EBD2DE9FF410446FAA03D
:102CB00004F0030300680290F8A000680390F8A0F5
:102CC0000668F8A0056802A8C15C8DF80010C4F37E
:102CD000C101425C8DF80120C4F38112805C8DF843
:102CE000020003A8C35C8DF80430415C8DF8051028
:102CF000805C8DF806006A46032140F22640FFF70B
:102D000021FD4FF0FF37E0BB01AA032140F22A402A
:102D1000FFF718FDA8BBCDE9006560070BD59DF84E
:102D2000000040F001008DF800009DF8040040F024
:102D300001008DF80400A0060BD59DF8010040F0BD
:102D400001008DF801009DF8050040F001008DF8AC
:102D50000500E0050BD59DF8020040F001008DF85C
:102D600002009DF8060040F001008DF806006A465A
:102D700003214FF48860FFF7E5FC10B901AA032195
:102D800000E004E040F23140FFF7DCFC18B13846C7
:102D900004B0BDE8F081C44804810020F8E7F8B52C
:102DA000C149098901F0030250F822404A0700D5C1
:102DB0006442C1F3C1028B0650F8222000D5524272
:102DC000C1F3811350F82330C80500D55B42B749E1
:102DD00084FB0140850045EA947082FB0142A40F08
:102DE00044EA820483FB0121950F45EA8105010E27
:102DF0008DF80010010C8DF80110010A8DF80210F9
:102E00008DF803006A4604214FF47470FFF79AFCB2
:102E10004FF0FF3688B9200E8DF80000200C8DF899
:102E20000100200A8DF802008DF803406A46042153
:102E30004FF47570FFF786FC08B13046F8BD280ED8
:102E40008DF80000280C8DF80100280A8DF802008A
:102E50008DF803506A4604214FF47670FFF772FC38
:102E6000F8BD2DE9FF41044603A8FEF746F9BDF879
:102E70000C00410CC30300BF8B48028902F0030021
:102E8000550754F8200000D54042C2F3C10596060C
:102E900054F8255000D56D42C2F38116D20554F87E
:102EA000264000D56442A0FB0367C21702FB0372F1
:102EB00000FB0120820042EA9670A5FB0367EA1737
:102EC00002FB037205FB0122950045EA9672A4FB02
:102ED0000367E51705FB037304FB01318B0043EA2D
:102EE0009671030E8DF80030030C8DF80130030A43
:102EF0008DF802308DF80300100E8DF80400100CD0
:102F00008DF80500100A8DF80600080E8DF80800EF
:102F1000080C8DF80900080A8DF80A008DF80720C2
:102F20008DF80B106A460C214FF42570FFF70AFC50
:102F30002EE730B504465EA285B007CA8DE80700CB
:102F40004FF0FF35C82C16D8C820B0FBF4F1491E4D
:102F5000080A8DF80C008DF80D1003AA022140F22A
:102F60001620FFF7EFFB30B96A460C2140F6C1206E
:102F7000FFF7E8FB10B1284605B030BD4A48848110
:102F80000020F9E74849898901800020704770B521
:102F900004462DED028B82B040074FF0FF3578D00C
:102FA000B1F5C86F75D800EE101AB8EE400ADFED23
:102FB000430A01A880EE208AFEF73FF89DF804003E
:102FC000022806D0042810D0082835D0102860D157
:102FD0003EE09FED3B0A28EE000ABCEEC00A10EE70
:102FE000100A9FED380A82B20AE09FED370A28EEF8
:102FF000000ABCEEC00A10EE100A9FED340A82B23D
:1030000028EE000A6E46BCEEC00A10EE100A81B22D
:10301000100A8DF800008DF80120080A8DF80200D2
:103020008DF80310E00726D0324602214FF4EA70F3
:10303000FFF788FB68BB17E09FED250A28EE000A22
:10304000BCEEC00A10EE100A9FED220A82B2D7E74A
:103050009FED210A28EE000ABCEEC00A10EE100A0D
:103060009FED1E0A82B2CBE7B21C02214FF4927090
:10307000FFF768FB68B9A00735D56A4602214FF40F
:10308000EC70FFF75FFB20B9B21C02214FF4947083
:1030900026E038E0541201084CCD6C000CC92C001D
:1030A0003656760026466600B800002009E3CA02BC
:1030B000FEF2ABC4AAF1DFDFBBAFDFDF00004843A5
:1030C0000000804600004046000000460000C04569
:1030D0000000804500004045000000450000C0445D
:1030E000FFF730FB78B9600712D56A4602214FF42A
:1030F000EE70FFF727FB30B9B21C02214FF4967037
:10310000FFF720FB20B1284602B0BDEC028B70BD5A
:103110000020F9E708B500218DF80010C10702D0A2
:1031200030218DF80010810705D59DF8001041F081
:103130000C018DF80010400705D59DF8000040F007
:1031400003008DF800006A4601214FF4A470FFF7D8
:10315000F9FA08BD08B560B1042800D90420401E62
:103160008DF800006A46012140F24F10FFF7EAFA9D
:1031700008BD0120F3E70521B0FBF1F008B5010A15
:103180008DF800108DF801006A4602214FF4EF70AF
:10319000FFF7D8FA08BD0521B0FBF1F008B5010A28
:1031A0008DF800108DF801006A4602214FF4ED7091
:1031B000FFF7C8FA08BD4FF47A7290FBF2F008B539
:1031C0004843010E8DF80010010C8DF80110010A22
:1031D0008DF802108DF803006A4604214FF4AE709A
:1031E000FFF7B0FA08BD0521B0FBF1F008B5010A00
:1031F0008DF800108DF801006A4602214FF4AD7081
:10320000FFF7A0FA08BD0521B0FBF1F008B5010AEF
:103210008DF800108DF801006A4602214FF4AC7061
:10322000FFF790FA08BD38B504004FF0FF3506D01F
:103230006A4604214FF45870FFF7ACFA08B12846EB
:1032400038BD00989DF8031000BA20F0FF00084335
:103250002060002038BD08B5010E8DF80010010C6B
:103260008DF80110010A8DF802108DF803006A46EE
:1032700004214FF45870FFF765FA08BD38B5040013
:103280004FF0FF3506D06A4604214FF47170FFF706
:1032900081FA08B1284638BD00989DF8031000BA9D
:1032A00020F0FF00084300EB800080002060002039
:1032B00038BD1421B0FBF1F008B5010E8DF80010F7
:1032C000010C8DF80110010A8DF802108DF8030031
:1032D0006A4604214FF47170FFF734FA08BD08B54F
:1032E00060B120208DF8000028208DF801003020EA
:1032F0008DF8020038208DF8030004E0A322042199
:1033000068460BF06DF86A46042140F69E20FFF7F0
:1033100019FAFDF7FAF908BD08B560B1C0208DF8BB
:103320000000C2208DF80100C4208DF80200C620E4
:103330008DF8030004E08B22042168460BF050F85E
:103340006A46042140F69820FFF7FCF9FDF7DDF905
:1033500008BD0EB54FF4976310B1E1A107C901E0B4
:10336000E2A207CA8DE807006A4609211846FFF75E
:10337000E9F90EBD3EB5044602208DF80000CA20D2
:103380008DF80100E3208DF8020009208DF803007C
:103390006A4604216820FFF7D5F9A3208DF80000C4
:1033A000610609D5C0218DF80110C8218DF80210E1
:1033B000C2218DF8031005E08DF801008DF80200A0
:1033C0008DF8030014F4C07F09D0C4218DF80410D7
:1033D000CC218DF80510C6218DF8061005E08DF87A
:1033E00004008DF805008DF806008DF808008DF8B2
:1033F00007008DF809006A460A2140F6A720FFF76A
:10340000A1F9A0074FF0D80503D020208DF80000C7
:1034100001E08DF800506A46012140F6B620FFF722
:1034200091F9A00601D5012000E00020FFF791FFEF
:1034300014F4C07F1ED0E0050AD5B2208DF800003C
:103440008B208DF80100B6208DF802009B2009E04A
:10345000B0208DF8000080208DF80100B4208DF898
:10346000020090208DF803006A46042140F6A22055
:10347000FFF768F9E1074FF40B6022D0F8218DF8CF
:1034800000106A460121FFF75DF9FA210720FFF7D6
:103490007EFD0720FFF73EFE0120FFF75BFE642064
:1034A000FFF769FE4FF4FA70FFF775FEC8219248E6
:1034B000FFF781FE2820FFF796FE0A20FFF7A3FE04
:1034C00005E08DF800506A460121FFF73BF9A0079F
:1034D00003D5D9208DF8000001E08DF800506A4630
:1034E000012140F23D70FFF72DF9600701D5012061
:1034F00000E00020FFF710FFE00601D5012000E00A
:103500000020FFF7ECFE7D4D44F008006881FDF7D8
:10351000FCF80020A873600601D50620A87314F4F7
:10352000C07F02D0A87B801DA87314F0140F02D0B6
:10353000A87B1030A873A00702D0A87B001DA87339
:1035400000203EBD6D49498901800020704700B5CB
:103550006BA187B00EC98DE80E006CA10DF10C0CAB
:103560000EC98CE80E0040F68223012807D00228FD
:1035700003D04FF0FF3007B000BD6A4600E003AA59
:103580000B211846FFF7DEF8F5E72DE9FF4F89B06C
:103590001746DDE916520024584E884681462C8095
:1035A000A246B07B6946FDF798FE4FF0FF3B18B18D
:1035B00058460DB0BDE8F08F708910F0140F3ED062
:1035C000009909BA21F0FF029DF803100A433A60FE
:1035D00001999DF8073009BA21F0FF01194379607C
:1035E000029B9DF80B401BBA23F0FF032343BB60F3
:1035F000039C121424BA24F0FF0C9DF80F40091408
:103600004CEA040C1024C7F80CC01B144FEA2C47DA
:1036100012FB02F211FB012113FB03F217FB07223D
:103620001144A1F17061B1F1007F04D9FDF76DF88B
:10363000A5F800A0BCE7298841F4807129804206E2
:10364000694611D50A19A41D13885BBAA8F8003081
:1036500053885BBAA8F80230928852BAA8F80420BE
:103660002A8842F008022A8010F4C07F11D00A197B
:10367000A41D13885BBAA9F8003053885BBAA9F877
:103680000230928852BAA9F804202A8842F07002C7
:103690002A80800716D00C44E07800F0C00500F0C6
:1036A0003F016078C00706D0C80801F00701326802
:1036B000491C02B190476078000703D5716809B1D1
:1036C000A80988470C9802F0A6FD002071E70B4975
:1036D00008600020704709494860002070470000DA
:1036E000B8AAB38DB4980D355D000000B8AAAAAA97
:1036F000B088C3C5C700000009E3CA02B8000020B3
:10370000D8B1B9F38BA391B609B4D900DAB1B9F342
:103710008BA391B6DAB4DA000FB42DE9F041044678
:10372000CAB0092C3ED2DFE804F005050505050501
:10373000053D050053AA06A852990BF043FA071E4F
:1037400031DD182168460AF052FE24208DF8000071
:1037500001208DF801008DF802400D208DF8150034
:103760000A208DF8160000256C460DF1180817E0A8
:10377000781B122800DB1220C6B21221E01C0AF0CE
:1037800036FE08EB05013246E01C0AF009FE002671
:103790004946A05D03F021FA761C172EF8DB12359E
:1037A000BD42E5DB00204AB0BDE8F0015DF814FB46
:1037B00050B587B0040054D0182168460AF017FEAF
:1037C00024208DF8000002208DF8010020686E464C
:1037D000000E8DF803002068000C8DF8040020888E
:1037E000000A8DF8050020788DF806006068000E4C
:1037F0008DF807006068000C8DF80800A088000AAA
:103800008DF8090020798DF80A00A068000E8DF867
:103810000B00A068000C8DF80C002089000A8DF8C0
:103820000D00207A8DF80E00E068000E8DF80F0074
:10383000E068000C8DF81000A089000A8DF81100D6
:10384000207B8DF812000D208DF815000A208DF8D0
:10385000160000242946305D03F0BFF9641C172CC4
:10386000F8DB07B050BD30B587B00C0005467CD002
:10387000182168460AF0BBFD24208DF800000320C3
:103880008DF801008DF802500D208DF815000A20EA
:103890008DF81600072D68D2DFE805F05C5C5C4D02
:1038A0005C048C002068000E8DF803002068000C7A
:1038B0008DF804006068000E8DF805006068000C4B
:1038C0008DF80600A068000E8DF80700A068000CB7
:1038D0008DF80800E068000E8DF80900E068000C23
:1038E0008DF80A002069000E8DF80B002069000C8D
:1038F0008DF80C006069000E8DF80D006069000CF9
:103900008DF80E00A069000E8DF80F00A069000C64
:103910008DF81000E069000E8DF81100E069000CD0
:103920008DF81200206A000E8DF81300206A000C3A
:103930008DF814004DE0E068000E8DF80F00E0688F
:10394000000C8DF81000A089000A8DF81100207B72
:103950008DF812002068000E8DF803002068000C1E
:103960008DF804002088000A00E03BE08DF8050097
:1039700020788DF806006068000E8DF807006068FA
:10398000000C8DF80800A088000A8DF80900207945
:103990008DF80A00A068000E8DF80B00A068000CDE
:1039A0008DF80C002089000A8DF80D00207A8DF822
:1039B0000E000EE02068000E8DF803002068000C59
:1039C0008DF804002088000A8DF8050020788DF815
:1039D000060000246D463146285D03F0FEF8641CA5
:1039E000172CF8DB07B030BD10B500F014FEDA4834
:1039F000007E400601D5012010BD002010BD10B58D
:103A000000F01AFED448007D400601D5012010BD0B
:103A1000002010BD10B500F035FECF48007F4006F5
:103A200001D5012010BD002010BDF0B5CA4B93E8B0
:103A3000F00080E8F000187C0870586A1060186A7E
:103A4000F0BD2DE9F047C44C804689462068924677
:103A5000014601F09EFA0746E168206801F099FAF4
:103A60000646D4E9010101F094FA0546A068014632
:103A700001F08FFA3844A0F1804000EE100AAA1B32
:103A8000F8EEC00A00EE102AB8EEC00A0BF0A6FB52
:103A9000DFEDB20A60EE200A9FEDB11A80EE810AD6
:103AA000B5EEC00AF1EE10FA03D2DFEDAE0A30EE49
:103AB000200ADFEDAD0A20EE200ABDEEC00A88ED37
:103AC000000A207C89F80000616ACAF80010206AA8
:103AD000BDE8F0872DE9F74FDFF87C9205462DED24
:103AE000068B84B04C46D9F80000014601F051FA2B
:103AF0000646D4E9000101F04CFA0390A168206861
:103B000001F047FA0190E168206801F042FA83462B
:103B10006068014601F03DFAD4E9010101F039FA8B
:103B20008046E168606801F034FA0090A0680146C0
:103B300001F02FFA0746D4E9020101F02AFA824681
:103B4000E068014601F025FA3744A7F1804700EE0E
:103B5000107AA8EB0B040290F8EEC00A00EE104AAF
:103B6000B8EEC00A0BF03AFBDFED7C8A20EE280AA3
:103B7000DFED7E0A039980EE209A00EE104A00EEF7
:103B8000907A0AEB0108B8EEC00AB8EEE01A00EE2F
:103B9000907A20EE000AF8EEE00A01EE200A0CF01E
:103BA00046F8F0EE400A00EE108AB8EEC00A0BF0BC
:103BB00015FB20EE280ADFED6A9A029980EE298A29
:103BC00088199FED6BAAB0F1804009D5B5EEC08A87
:103BD000F1EE10FA02DB38EEC88A01E03AEE488ACC
:103BE000DDE90012891A00EE101AF8EEC00A00EEA4
:103BF000100AB8EEC00A0BF0F1FA20EE280AC0EE67
:103C0000290A9FED5C0A5C4930EEC00A10EE100AEA
:103C1000884201DB38EEC00A584910EE100A88428B
:103C200001D93AEE400ADFED500A28EE201A20EEC4
:103C3000200ABDEEC11ABDEEC00A85ED001A85ED61
:103C4000010A29EE200ABDEEC00A85ED020A0B9A90
:103C500099F8101011700C99D9F824200A60D9F83D
:103C6000200004B0BDEC068BBDE8FE8F70B50D469C
:103C700001461446384801F0DCFB3748017C2970C6
:103C8000416A2160006A70BD2DE9F041324A044664
:103C900024324FF47A75A2F114012F4802F061F832
:103CA0002D49206B4861636F8B61D4F8B820CA61DD
:103CB000C70501D5E56A0026DF0504D5276FAF42A9
:103CC00001DA3D460126D70505D5D4F8B470AF42D8
:103CD00001DA3D460226D4F820715FEAC75C03D5BD
:103CE000D4F82CC1AC4518DB012E08D0022E0ED022
:103CF000032E12D0C0F380100862A06B03E0C3F360
:103D000080100862E06F48620020BDE8F081C2F3D5
:103D100080100862D4F8C000F5E7C7F3801008628D
:103D2000D4F82401EFE707224FF46171144800F042
:103D300082BB10B5282108480AF059FBBDE81040A5
:103D4000104802F03FB910B50D4800F0BEFBBDE8C9
:103D500010400C4802F015B9C800002000003443A0
:103D6000DB0F49400000B44300008047DB0F49C02F
:103D7000000034C30000B4420000B4420000B4C2EA
:103D8000893C0008273D000810B501464822FE483E
:103D90000AF006FBFC49F43901F5A070D1F8302196
:103DA0004263D1F834218267D1F83811C0F8BC10D1
:103DB000032902D1012002F028F8002010BD10B51F
:103DC0004822F1490AF0ECFA002010BDEE4900202B
:103DD0004C31C1F89001704710B500209FEDEB0AFF
:103DE000E94C4C3404EB8001401C81ED5B0A09284E
:103DF000F8DB2421E6480AF0FAFA0020B7EE000AC0
:103E00004FF0804204EB0011401C81ED5B0AC1F8C9
:103E100048210328F6DB0020C4F8900110BDDA48E1
:103E200010B54FF4A071F4380AF0E1FAD6484FF417
:103E3000CC714C300AF0DBFAFFF7CEFFBDE8104042
:103E40004DF293034822D349D34802F0E9B8CE4853
:103E50004C30406A7047CC484C30806E7047CA483E
:103E60004C30D0F8AC007047426201607047C64ADF
:103E70004C325162106070474FF47A7290FBF2F24C
:103E8000C1494C31C1E90A020A6C002A03D1C34A74
:103E900092FBF0F0086470474FF47A7290FBF2F2F4
:103EA000B9494C31C1E91B02D1F88420002A04D160
:103EB000BA4A92FBF0F0C1F8840070474FF47A726E
:103EC00090FBF2F2B0494C31C1E92C02D1F8C82084
:103ED000002A04D1B14A92FBF0F0C1F8C800704743
:103EE000A9494C31C96A01607047A7494C31096F33
:103EF00001607047A4494C31D1F8B410016070479B
:103F0000A1494FF47A724C31C1F8280190FBF2F0CC
:103F1000C1F82C0170479C494C31086470479A499C
:103F20004C31C1F88400704797494C31C1F8C80042
:103F3000704795484C30B0F8B800C0F30020704787
:103F400091484C30008EC0F3002070478E484C30B2
:103F5000B0F87400C0F3002070478B4900204C314A
:103F6000B1F87420D20500D5C86F0A8ED20503D5EA
:103F70008A6B824200D91046B1F8B820D20504D528
:103F8000D1F8C020824200D91046B1F8FC20D205F9
:103F900004D5D1F80411814200D9084670477A4A05
:103FA0004C32916650647047774A4C32C2F8AC107C
:103FB000C2F8880070472DE9F0410C4605461646C8
:103FC0000968006800F01DFF07466168686800F036
:103FD00018FF0744A168A86800F013FF3844306058
:103FE0002168E86800F00DFF07466168286900F065
:103FF00008FF0744A168686900F003FF3844706057
:104000002168A86900F0FDFE07466168E86900F0D4
:10401000F8FE0744A168286A00F0F3FE3844B06057
:10402000BDE8F0813EB50446B0F904000D46C0037A
:104030000090B4F9060004F10C03C0030190B4F938
:1040400008006A46C0030290606A4100208880B27E
:1040500001F05CFC0098296804F11803A0EB6100F2
:104060000090019869686A46A0EB6100019002988F
:10407000A968A0EB61000290606A4100208880B2CC
:1040800001F044FC206B40F0200020633EBD00287E
:1040900003D03D4B0ECB80E80E00704770B50C4648
:1040A0000546014638480C2206460AF0ABF940B1F5
:1040B000354895E80E0080E80E003146D430FFF711
:1040C000B1FF314800224C300821C0F8BC40A0F5B7
:1040D000A070C0F83841BDE87040084600F058BEF6
:1040E0002949F439C1F83C0170472748F438D0F821
:1040F0003C01704770B50D46040011D001462248BE
:104100000C22203006460AF07DF948B11E4894E89A
:104110000E00203080E80E0031467030FFF782FF3D
:10412000194800224C3010218567A0F5A070C0F816
:104130003451BDE87040084600F02ABE1249002202
:104140004C318867A1F5A071C1F8340110210846EF
:1041500000F01EBE70B50C4C0D46F43C98B1D10772
:1041600002D00168C4F81411910702D54168C4F85F
:104170001811510702D58068C4F81C01024920318A
:1041800001F170000CE00DE0E401002000000000EF
:1041900078030020BF3D0008893D000840420F0021
:1041A000FFF740FFF948002210218567C4F8345119
:1041B000BDE87040084600F0EBBD70B50D46040048
:1041C00011D00146F1480C22403806460AF01AF98F
:1041D00048B1EE4894E80E00403880E80E003146C1
:1041E0004030FFF71FFFE948A0F5A0744563C4F80D
:1041F0003051D0F8E40050B10421C4F80C01002281
:10420000084600F0C5FD0120C4F8100170BD4FF450
:10421000D810F1E7DE49D1F81001012800D00020C4
:104220000022C1F81021704710B520B1D74C403C96
:104230001CCC80E81C00002903D0D548D0F80C0124
:10424000086010BD10B520B1D04C2C3C1CCC80E8CF
:104250001C00002903D0CE48D0F82001086010BD12
:1042600070B5CA4C15460268636F8E0611D4A4F867
:1042700048208188A4F84A100089A4F84C0043F033
:104280008000A4F12C01606701F17000FFF7CAFE05
:104290000DE0E265426822668068606643F02000B7
:1042A000606701F00300BA49A067C1F83401606F8C
:1042B00040F4A0706067E06FC4E91F50002070BD3B
:1042C000B24A10B5403A036853648088A2F84800A7
:1042D000AE48026B42F4E0720263826BC0E90E12D8
:1042E000A0F14001FFF79EFE002010BDA74A00216B
:1042F00002EB8103D3F83C3140F82130491C0329FB
:10430000F6DB704730B4A149002200BF50F82230DC
:1043100001EB8204521CC4F83031032AF6DBD1F8D9
:104320009021012A0BD0002201EB820450F82230A8
:10433000521CC4F83C31032AF6DB30BC7047954A66
:10434000014630BC02F10C0001F0A7BB3EB515469A
:104350008E4C8A0618D4FFF7D5FF6846FFF7C6FFD4
:10436000009824F88C0F0198608088490298A080FA
:104370004C3901F1D400FFF755FE54F82C0F40F0F2
:10438000800044F8B80915E00268C4F8A02042682B
:10439000C4F8A4208068C4F8A800D4F8B80040F09D
:1043A0002000C4F8B80001F003007949C4F8BC004B
:1043B000C1F8380154F8C00F64E80250206840F496
:1043C000A070206000203EBD704A42F8E40F906962
:1043D00040F4E0709061106AC2E908100020704754
:1043E00070B56C4B71C82C3B01F4007183E871000F
:1043F0006648C0F82421D0F8202142F4E0720A4334
:10440000C0F82021002070BD604900204867704737
:104410005E490020C1F8B80070475C490020C1F82F
:104420002001704759490020086370475749002010
:10443000C1F8FC0070472DE9F047554B0546914601
:10444000002002461C680DE002EB420603EB8606E4
:104450007768AF4202D0B6688E4202D10520BDE82F
:10446000F087521C9442EFDC132C27DC00220CB99D
:1044700018E0521C944206DD02EB420603EB86066E
:10448000B6688E42F5DB94420AD10BE004EB440699
:1044900003EB8606083E641EB6E8801186E88011AC
:1044A0009442F3DC02EB420203EB8202C2F80C906E
:1044B000C2E901511968491C1960D0E7364A37A191
:1044C0000620FFF729F90620C9E730B53049002258
:1044D0000B6819E002EB420401EB84046468844237
:1044E00011D10868521C90420ADD02EB420001EB38
:1044F0008000001D90E838000C3880E83800F0E7B4
:10450000401E086002E0521C9342E3DC002030BDF4
:104510001E48026B530602D542F010010163426F40
:10452000530602D542F010024267D0F8B820530675
:1045300003D542F01002C0F8B820D0F8FC20530692
:1045400003D542F01002C0F8FC20D0F820114A0632
:1045500003D541F01001C0F8201150F8301F21F0B0
:10456000400140F8741B50F8301C21F0400140F825
:10457000301C416921F040014161816D21F0400111
:104580008165C16F21F04001C16770473002002092
:10459000F00000206C030020502401084D504C0016
:1045A0002DE9F0418748002490F83010490600D5E5
:1045B000022490F87410490601D544F0010490F8E3
:1045C000B810490601D544F0040490F8FC104906DF
:1045D00001D544F0080490F82001400601D544F0CC
:1045E000100400263546784F0EE000BF05EB45006D
:1045F00007EB8000C168214205D0416871488847B7
:1046000008B106B906466D1C3868A842EEDCFFF713
:104610007FFF304604E530B520B16A4D5C3538CDBA
:1046200080E8380067480AB1C36F1360002902D0E0
:1046300090F87800087030BD30B5624D183538CD2F
:1046400080E838005F480AB1836B1360002902D00C
:1046500090F83400087030BD30B55A4D0C3538CD67
:1046600080E8380057480AB1836B1360002902D0F4
:1046700090F83400087030BD524B18330ECB80E8F0
:104680000E0082E730B54F4DA03538CD80E83800B8
:104690004C4812B1D0F8C0301360002908D04A4A03
:1046A000D2F83C210AB1002001E090F8BC0008706B
:1046B00030BD444B10B5D3F8E440046012B1D3F8D8
:1046C00004011060002902D0D3F80001086010BD79
:1046D0003C48406B59E73C48D0F83C0108B1002009
:1046E00053E73848D0F8BC004FE73648806F4CE7B6
:1046F000344909680160002047E73249496C01608C
:10470000002042E72F4A002102EB8103D3F8483111
:1047100040F82130491C0929F6DB36E710B5294B52
:10472000DFED2A0A002100BF03EB810450F82120AD
:10473000C4F8482150F82120491C00EE102A09290C
:10474000B8EEC00A20EE200A84ED5B0AECDB10BD57
:104750001C4A002102EB810393ED5B0A00EB81030D
:10476000491C83ED000A0929F4DB0EE710B5154C4E
:104770009FED170A002100BF00EB810204EB8103CB
:10478000D2ED000A491CC3ED5B0AD2ED000A0929EB
:1047900060EE800AFDEEE00AC3ED520AECDB10BDCC
:1047A000084A002102EB8103D3F8303140F8213070
:1047B000491C0329F6DBE8E602490120C1F8900113
:1047C000E3E6000030020020F0000020000080300E
:1047D0000000804E3EB504466846FFF71CFF9DED85
:1047E000000AF8EEC00A9FEDFE0A60EE800AC4EDF2
:1047F000000ADDED010AF8EEE00A60EE800AC4ED81
:10480000010ADDED020AF8EEE00A20EE800A84EDEE
:10481000020AF44890F82800400601D501203EBD68
:1048200000203EBD10B586B004466846FFF7F3FE93
:1048300003A801F031FA03990098A0EBA130009091
:1048400004990198A0EBA130019005990298A0EB82
:10485000A13002909DED000AF8EEC00A9FEDE00A3B
:10486000012060EE800AC4ED000ADDED010AF8EED9
:10487000E00A60EE800AC4ED010ADDED020AF8EEFE
:10488000E00A20EE800A84ED020A06B010BD3EB5B3
:104890000446D44803790B7080681060684601F0C4
:1048A000FBF90098801300EE100AF8EEC00A9FEDA5
:1048B000CC0A60EE800AC4ED000A0198801300EE75
:1048C000900AF8EEE00A60EE800AC4ED010A029850
:1048D000801300EE900A0120F8EEE00A20EE800A34
:1048E00084ED020A3EBD3EB504466846FFF7A4FECD
:1048F0009DED000AF8EEC00A9FEDBB0AB94860EED4
:10490000800AC4ED000ADDED010AF8EEE00A60EE6F
:10491000800AC4ED010ADDED020AF8EEE00A20EE9D
:10492000800A84ED020A90F82400400601D5012097
:104930003EBD00203EBD3EB504466846FFF78CFEF6
:104940009DED000AF8EEC00A9FEDA70AA54860EEAB
:10495000800AC4ED000ADDED010AF8EEE00A60EE1F
:10496000800AC4ED010ADDED020AF8EEE00A20EE4D
:10497000800A84ED020A90F82400400601D5012047
:104980003EBD00203EBD70B5964C054620790870AE
:10499000A06810609FED950A606900281ADBD4EDCD
:1049A000060AF8EEE00A60EE800AC5ED000AD4EDD2
:1049B000070AF8EEE00A60EE800AC5ED010AD4EDC0
:1049C000080AF8EEE00A60EE800AC5ED020AD4EDAE
:1049D000050A21E0A069404200EE900AF8EEE00AE4
:1049E00060EE800AC5ED000AE069404200EE900AE0
:1049F000F8EEE00A60EE800AC5ED010A206A404246
:104A000000EE900AF8EEE00A60EE800AC5ED020AB8
:104A10006069404200EE900AF8EEE00A20EE800A5B
:104A200085ED030A01F070FA85ED040A206B70BD74
:104A30006C4B10B51C6914601A780A705FF00001A5
:104A400003EB810292ED2E0A00EB8102491C82EDFC
:104A5000000A0329F4DB93F82C00400601D501205D
:104A600000E000200021D96210BD10B55D4C237913
:104A70000B70A168116000F0F2F8206B10BDF0B56A
:104A8000584A584D04462DED028B083285B0002758
:104A90004FF47A76291D02F10C0001F062F9206BC7
:104AA0006862606FA862D4F8B800E862216BC8053C
:104AB00000D5E66A606FC20504D5226FB24201DA02
:104AC00016460127D4F8B820D30505D5D4F8B4305C
:104AD000B34201DA1E460227D4F820C15FEACC5364
:104AE00007D5D4F82C31B34200DA032700EA0203D9
:104AF00002E001EA00031340DB0506D5EFB1012F08
:104B000020D0022F24D0032F28D000202863354A3C
:104B100003A910326846FFF7B5FD9DF90C002E463B
:104B200028609FED338A00256F4600BF94F8B800D7
:104B300000F05000402817D025E0C1F38010286312
:104B4000A06B03E0C0F380102863E06FA860DEE78D
:104B5000C2F380102863D4F8C000F7E7CCF38010CC
:104B60002863D4F82401F1E757F8250000EE100A75
:104B700005EB450000EBC50006EB8000B8EEC00A6F
:104B8000343000F01BFFD4F8B800C0F381110329C2
:104B900016D040060CD557F8250000EE100AB8EEE6
:104BA000C00A00BF20EE080A06EB850080ED2E0A41
:104BB0006D1C032DBADB05B00020BDEC028BF0BDEF
:104BC00057F8250000EE100A05EB450000EBC50084
:104BD00006EB8000B8EEC00A343000F004FFE1E7D5
:104BE0000AE81C39C803002035FA8E3400008030F2
:104BF00000008037AFF27910FFF767BC07224FF44F
:104C00006171AFF28510FFF716BC70B5C4215C4826
:104C100009F0EDFB5A4D002404EB440000EBC40006
:104C200005EB80005749343000F0B5FE641C032CBE
:104C3000F2DB002070BD10B5FFF7E7FFAFF24300D5
:104C4000BDE8104001F0BEB910B5AFF2CD10FFF7CE
:104C50003CFCAFF25700BDE8104001F092B910B52E
:104C600004462DED028B8AB09FED478A684600F01E
:104C700031F89DED030ADDED000AB1EE400A0AF0BD
:104C8000ADFA20EE080A84ED000A9DED070ADDED7D
:104C9000080AB1EE400A0AF0A1FA20EE080A84EDF3
:104CA000010A9DED060A0AF003FA20EE080A84EDD7
:104CB000020A94ED000AB5EEC00AF1EE10FA05D230
:104CC000DFED320A30EE200A84ED000A0AB0BDECB6
:104CD000028B10BD10B504462DED028B8AB028481A
:104CE0001FED3E8A6946143000F0A3FB9DED000ADB
:104CF000B8EEC00A20EE080A84ED000A9DED010A14
:104D0000B8EEC00A20EE080A84ED010A9DED020A01
:104D1000B8EEC00A20EE080A84ED020A9DED030AEF
:104D2000B8EEC00A20EE080A84ED030A9DED040ADD
:104D3000B8EEC00A20EE080A84ED040A9DED050ACB
:104D4000B8EEC00A20EE080A84ED050A9DED060AB9
:104D5000B8EEC00A20EE080A84ED060A9DED070AA7
:104D6000B8EEC00A20EE080A84ED070A9DED080A95
:104D7000B8EEC00A20EE080A84ED080AA6E7000093
:104D8000C803002038000020E02E65420000B44334
:104D9000002A04D1064B1A688A4302431A607047FE
:104DA00003490A6808B100200860104670470000F7
:104DB0004C000020DFEDFE0A20EE200ADFEDFD0AA8
:104DC000FD4980EE201ABCEEC10A10EE100AC0B2F6
:104DD00001EB800090ED000A7047DFEDF50A20EE50
:104DE000200ADFEDF40AF44980EE201ABCEEC10A75
:104DF00010EE100A4030C0B201EB800090ED000AC6
:104E0000704780FB0101800F40EA8100704730B598
:104E10000B46044609680068FFF7F3FF054659682A
:104E20006068FFF7EEFF2D1A9968A068FFF7E9FFA9
:104E30002D1AD968E068FFF7E4FF281A1060596856
:104E40002068FFF7DEFF054619686068FFF7D9FFA5
:104E50000544D968A068FFF7D4FF05449968E06865
:104E6000FFF7CFFF281A506099682068FFF7C9FF45
:104E70000546D9686068FFF7C4FF2D1A1968A06855
:104E8000FFF7BFFF05445968E068FFF7BAFF284401
:104E90009060D9682068FFF7B4FF0546996860689C
:104EA000FFF7AFFF05445968A068FFF7AAFF2D1A66
:104EB0001968E068FFF7A5FF2844D06030BD02689C
:104EC0000A60426852424A60826852428A60C06800
:104ED0004042C860704730B591B004460020009051
:104EE0000B46154689686068FFF78BFF02465968D4
:104EF000A068FFF786FF101A01901968A068FFF7F5
:104F000080FF024699682068FFF77BFF101A029025
:104F100059682068FFF775FF024619686068FFF757
:104F200070FF101A039008AA69462846FFF76FFF22
:104F30000CA92846FFF7C3FF04AA0CA908A8FFF78D
:104F400066FF069808B9059898B19DED050AB8EE78
:104F5000C00A9FED9A1A60EE010A9DED060AB8EEAE
:104F6000C00A20EE010A0AF039F9B1EE400A11B088
:104F700030BD9FED930AFAE7034600204FEA000197
:104F800053F82120491C521302FB02000329F7DBCE
:104F9000704780FB0101400F40EAC10070470A469C
:104FA000C117890710B541EA90018007D31709F0AE
:104FB000A5F910BD80FB010110B509F0DFF910BDA6
:104FC00010B503680C682344136043684C6823449D
:104FD000536083688C6823449360C068C968084440
:104FE000D06010BD70B50E462DED068B04469FEDCA
:104FF000759B0025B0EE498AF0EE698A1DE000BF7E
:1050000054F8250000F063FDB0EE40AAF0EE60AA6F
:1050100054F8250000F05BFDB0EE401AF0EE601A87
:1050200053EC1A2B51EC110B09F0A0FA53EC182B8E
:1050300009F0F5F941EC180B6D1CB542E0DB53ECBF
:10504000192B51EC180B09F005FC23D2B0EE480ADD
:10505000F0EE680A0AF0AEFD53EC102B9FED5B0BEF
:1050600051EC100B09F0F4FA41EC180B00250CE0A0
:1050700054F8250009F071FB53EC182B09F076FA6F
:1050800009F09DFB44F825006D1CB542F0DBBDEC3A
:10509000068B70BD4FF0804020600120002102E0AF
:1050A00044F82010401CB042FADBF0E7042199E7F5
:1050B00010B52DED068B9FED459B9FED46AB00682F
:1050C00009F04BFB9FED451B53EC112B09F04EFAF9
:1050D00041EC180B53EC192B09F0BCFB04D2B0EED9
:1050E000498AF0EE698A0AE053EC1A2B51EC180B4E
:1050F00009F098FB03D2B0EE4A8AF0EE6A8AB0EE6D
:10510000480AF0EE680A09F09BFD9FED361B51EC52
:10511000100B53EC112B09F029FA9FED341B53ECC3
:10512000112B09F023FA9FED331B53EC112B09F0DF
:105130008FFABDEC068B41EC100B10BD30B590B072
:10514000054600201446009007C901AB83E807001C
:1051500008AA69462846FFF75AFE0CA92846FFF719
:10516000AEFE04AA0CA908A8FFF751FE05AB93E810
:10517000070084E8070010B030BD90ED000AD1EDC3
:10518000000A91ED011A20EE200AD0ED010A00EE8E
:10519000C10AD0ED020A91ED021A00EEC10AD0ED6B
:1051A000030A91ED031A00EEC10A82ED000A25E020
:1051B00000000043D00F49404C1E01080000803021
:1051C00000000000000000000000000000000000DF
:1051D0000000F03F000000000000F0BF00000000F1
:1051E0000000103E00000000000000400000000031
:1051F0000080664000000060FB21094090ED000A3D
:10520000D1ED010A91ED001A20EE200AD0ED010A3D
:1052100000EE810AD0ED020A91ED031A00EE810A38
:10522000D0ED030A91ED021A00EEC10A82ED010AE7
:1052300090ED000AD1ED020A91ED031A20EE200A4A
:10524000D0ED010A00EEC10AD0ED020A91ED001A7C
:1052500000EE810AD0ED030A91ED011A00EE810AF9
:1052600082ED020A90ED000AD1ED030A91ED021AD7
:1052700020EE200AD0ED010A00EE810AD0ED020AEC
:1052800091ED011A00EEC10AD0ED030A91ED001A6A
:1052900000EE810A82ED030A704790ED000AD1ED1D
:1052A000000A30EE200A82ED000A90ED010AD1EDED
:1052B000010A30EE200A82ED010A90ED020AD1EDDA
:1052C000020A30EE200A82ED020A90ED030AD1EDC7
:1052D000030A30EE200A82ED030A70471FED480AE8
:1052E00090ED003A90ED012AD0ED021A63EE030A28
:1052F000D0ED032A42EE020A41EEA10A42EEA20AD2
:1053000010EE901AB1F1804F32DAB6EE000A20EEBC
:10531000801AB7EE080AF0EE403A21EE204A44EE39
:10532000603A63EEA00AF0EE403A21EE204A44EEE5
:10533000603A63EEA00AF0EE403A21EE204A44EED5
:10534000603A63EEA00A21EE201A01EE600A20EE18
:10535000200A63EE000AC0ED000A62EE000AC0ED0A
:10536000010A61EE800A22EE800AC0ED020A07E01F
:10537000F7EE000AC0ED000A80ED010A80ED020A96
:1053800080ED030A704710B590ED000AD0ED010AD8
:10539000044620EE000A00EEA00AD0ED020A00EE5C
:1053A000A00AD0ED030A00EEA00A0AF040FCB5EE18
:1053B000C00AF1EE10FA18D0D4ED000A80EE801A7F
:1053C00084ED001AD4ED010A80EE801A84ED011AF2
:1053D000D4ED020A80EE801A84ED021AD4ED030A9D
:1053E00080EE801A84ED031A10BDB7EE000A84ED3A
:1053F000000A1FED8D0A84ED010A84ED020A84ED96
:10540000030A10BD90ED000A81ED000A90ED010A3B
:10541000B1EE400A81ED010A90ED020AB1EE400AB8
:1054200081ED020A90ED030AB1EE400A81ED030A14
:10543000704710B5024640680B460146FFF7A9FDCC
:10544000044610680146FFF7A4FD2044A0F1804007
:105450001860D2E90101FFF79CFD04461168D0688D
:10546000FFF797FD201A5860D1685068FFF791FD4B
:10547000044611689068FFF78CFD20449860D2E9DB
:105480000101FFF786FD04461168D068FFF781FD32
:105490002044D86090680146FFF77BFD0446106801
:1054A0000146FFF776FD2044A0F180401861D2E963
:1054B0000201FFF76EFD0446D2E90010FFF769FD17
:1054C000201A5861D1685068FFF763FD04461168DF
:1054D0009068FFF75EFD201A9861D2E90201FFF79C
:1054E00058FD0446D2E90010FFF753FD2044D8616F
:1054F000D0680146FFF74DFD044610680146FFF7EE
:1055000048FD2044A0F18040186210BD10B54368EA
:105510000B6082684A60C4688C600068002805DA05
:1055200058420860504248606042886010BD020ED8
:105530000A70020C4A70020A8A70C87008467047E6
:105540000168C07809BA21F0FF010843704700885C
:1055500040BA00B27047B0F900007047020A0A7002
:105560004870084670472DE9F043002489462646D6
:10557000DDF81CC020E0002106EB46070D4609EBD4
:10558000C70713E09C4200D1641C614500D1491C4F
:1055900004EB440800EBC80808EB8108491C98EDAF
:1055A000000A07EB85086D1C88ED000AD2F8008020
:1055B0008845E7DC641C761C1168A142DBDC481ED0
:1055C0001060BDE8F0832DE9F043002489462646AB
:1055D000DDF81CC020E0002106EB46070D4609EB74
:1055E000071713E09C4200D1641C614500D1491C9F
:1055F00004EB440800EB081808EBC108491C98EDBF
:10560000000B07EBC5086D1C88ED000BD2F800807D
:105610008845E7DC641C761C1168A142DBDC481E6F
:105620001060CEE72DE9F04788462DED028BA5B03E
:105630000E689FEDFE8A0546022E08D0002707EB74
:1056400047003C4605EBC0094FF0FF3A30E095EDCE
:10565000000AD5ED070A95ED061A20EE200AD5EDD1
:10566000010A00EEC10A25B0BDEC028BBDE8F0874F
:10567000C8F800603B46424601A928460094FFF75F
:1056800072FF414601A8FFF7CDFF09EB840090EDC2
:10569000001A3819C00701D0504600E0012000EE82
:1056A000900A641CF8EEE00A61EE200A00EE808A9F
:1056B000B442DDDBB0EE480AD5E72DE9F04188467B
:1056C0002DED048BCAB005469FEDD98B0E68022ED6
:1056D00002D000273C4656E095ED0C0B95ED021BE1
:1056E00053EC102B51EC110B08F040FF95ED0E1B05
:1056F00095ED000B41EC180B53EC112B51EC100BFA
:1057000008F034FF53EC182B08F02AFF41EC100B83
:105710004AB0BDEC048BBDE8F08100BFC8F8006062
:105720003B46424602A928460094FFF74CFF4146FB
:1057300002A8FFF7C2FF3819B0EE409AF0EE609A67
:10574000C00702D04FF0FF3000E0012009F005F85B
:1057500041EC100B07EB470005EB001000EBC40019
:1057600090ED001B51EC100B53EC112B08F0FEFEDA
:1057700053EC192B08F0FAFE53EC182B08F04FFEEF
:1057800041EC180B641CB442C8DBB0EE480AF0EEE2
:10579000680ABDE710EE100AA749DFEDA80A8842A3
:1057A00002DD30EE600A704710EE100AA44988420C
:1057B000F9D330EE200A704700B5F0EE601AFFF71B
:1057C000E9FFB0EE401AB0EE610AFFF7E3FFF0EE3A
:1057D000400A994931EE600A10EE100ADFED970A8F
:1057E000884202DD30EE600A00BD10EE100A9449D6
:1057F0008842F9D930EE200A00BD10B5034641F2C7
:105800000550002204E09C5C00EB40102044521C38
:105810008A42F8DB10BD90F90010002902DD4FF03C
:105820000000704702DA4FF00400704790F9011051
:10583000002902DD4FF00100704702DA4FF0050049
:10584000704790F90200002802DD4FF00200704717
:1058500002DA4FF0060070474FF00700704770B54E
:105860000446FFF7D8FF0546E01CFFF7D4FF45EAE2
:10587000C005A01DFFF7CFFF45EA801080B270BDC4
:1058800030B500F00303450751F823404FF0FF33D4
:1058900001D51D4600E001256C431460C0F3C1042E
:1058A000850651F8244001D51D4600E001256C43D2
:1058B0005460C0F38114C00551F8241000D40123B2
:1058C0005943916030BD30B50C6845074FF0FF3348
:1058D00001D51D4600E001256C4300F0030542F8A8
:1058E00025404C68850601D51D4600E001256C4326
:1058F000C0F3C10542F825408968C40500D40123DE
:10590000C0F38110594342F8201030BD70B50446F1
:1059100000F003000E4652F8200061074FF0FF35FB
:1059200001D5294600E0012148433146FFF769FAD5
:105930001860C4F3C100A10652F8200001D5294621
:1059400000E0012148433146FFF75BFA5860C4F399
:105950008110E10552F8200000D40125684331464A
:10596000FFF74FFA986070BD10B590ED000AD0EDCA
:10597000010A20EE000A00EEA00AD0ED020A00EEB5
:10598000A00A10EE100A08F039FFBDE8104041EC03
:10599000100B0AF00FB99FED250A002280ED000AD6
:1059A00080ED010A01EB820393ED000A00EB820314
:1059B000521C83ED040A052AF4DB704780ED090AC6
:1059C00080ED0A0AD0ED060AB7EE001A70EE810AE1
:1059D00090ED071A30EE811AC0EE010AC0ED000A00
:1059E000C0ED010A704780ED090AD0ED060A90ED7E
:1059F000001A90ED072AD0ED011A00EEC10AF0EE70
:105A0000400A42EE610A90ED042AB0EE600A02EE0E
:105A1000010A90ED052A02EE210AD0ED081A20EEC7
:105A2000210A80ED0A0AC0EC020A7047000000005B
:105A30000000000000000000DB0F4940DB0FC94000
:105A4000DB0F49C091ED010AD2ED020A92ED011A75
:105A500020EE200AD1ED020A00EEC10A80ED000A14
:105A600091ED020AD2ED000A92ED021A20EE200A10
:105A7000D1ED000A00EEC10A80ED010A91ED000AA5
:105A8000D2ED010A92ED001A20EE200AD1ED010AB2
:105A900000EEC10A80ED020AC7E7F0B50E460746E0
:105AA000002400254FEA050303EB4300204456F889
:105AB000231057F82000FFF7A4F95B1C0544032BC3
:105AC000F2DB42F82450641C032CEADBF0BD10B575
:105AD00008F043FE9FED041B53EC112B08F046FD2C
